{
	"data": {
		"bytecode": {
			"linkReferences": {},
			"object": "60806040523480156200001157600080fd5b50604051620013d8380380620013d8833981810160405281019062000037919062000237565b816000908162000048919062000507565b5080600190816200005a919062000507565b5033600260006101000a81548173ffffffffffffffffffffffffffffffffffffffff021916908373ffffffffffffffffffffffffffffffffffffffff1602179055505050620005ee565b6000604051905090565b600080fd5b600080fd5b600080fd5b600080fd5b6000601f19601f8301169050919050565b7f4e487b7100000000000000000000000000000000000000000000000000000000600052604160045260246000fd5b6200010d82620000c2565b810181811067ffffffffffffffff821117156200012f576200012e620000d3565b5b80604052505050565b600062000144620000a4565b905062000152828262000102565b919050565b600067ffffffffffffffff821115620001755762000174620000d3565b5b6200018082620000c2565b9050602081019050919050565b60005b83811015620001ad57808201518184015260208101905062000190565b60008484015250505050565b6000620001d0620001ca8462000157565b62000138565b905082815260208101848484011115620001ef57620001ee620000bd565b5b620001fc8482856200018d565b509392505050565b600082601f8301126200021c576200021b620000b8565b5b81516200022e848260208601620001b9565b91505092915050565b60008060408385031215620002515762000250620000ae565b5b600083015167ffffffffffffffff811115620002725762000271620000b3565b5b620002808582860162000204565b925050602083015167ffffffffffffffff811115620002a457620002a3620000b3565b5b620002b28582860162000204565b9150509250929050565b600081519050919050565b7f4e487b7100000000000000000000000000000000000000000000000000000000600052602260045260246000fd5b600060028204905060018216806200030f57607f821691505b602082108103620003255762000324620002c7565b5b50919050565b60008190508160005260206000209050919050565b60006020601f8301049050919050565b600082821b905092915050565b6000600883026200038f7fffffffffffffffffffffffffffffffffffffffffffffffffffffffffffffffff8262000350565b6200039b868362000350565b95508019841693508086168417925050509392505050565b6000819050919050565b6000819050919050565b6000620003e8620003e2620003dc84620003b3565b620003bd565b620003b3565b9050919050565b6000819050919050565b6200040483620003c7565b6200041c6200041382620003ef565b8484546200035d565b825550505050565b600090565b6200043362000424565b62000440818484620003f9565b505050565b5b8181101562000468576200045c60008262000429565b60018101905062000446565b5050565b601f821115620004b75762000481816200032b565b6200048c8462000340565b810160208510156200049c578190505b620004b4620004ab8562000340565b83018262000445565b50505b505050565b600082821c905092915050565b6000620004dc60001984600802620004bc565b1980831691505092915050565b6000620004f78383620004c9565b9150826002028217905092915050565b6200051282620002bc565b67ffffffffffffffff8111156200052e576200052d620000d3565b5b6200053a8254620002f6565b620005478282856200046c565b600060209050601f8311600181146200057f57600084156200056a578287015190505b620005768582620004e9565b865550620005e6565b601f1984166200058f866200032b565b60005b82811015620005b95784890151825560018201915060208501945060208101905062000592565b86831015620005d95784890151620005d5601f891682620004c9565b8355505b6001600288020188555050505b505050505050565b610dda80620005fe6000396000f3fe608060405234801561001057600080fd5b50600436106100575760003560e01c8063163f75221461005c5780638b3f863f1461008c5780638da5cb5b146100bc578063a87430ba146100da578063e9f2d1311461010c575b600080fd5b610076600480360381019061007191906105f9565b610128565b6040516100839190610641565b60405180910390f35b6100a660048036038101906100a191906105f9565b610181565b6040516100b391906106ec565b60405180910390f35b6100c46102e4565b6040516100d1919061071d565b60405180910390f35b6100f460048036038101906100ef91906105f9565b61030a565b60405161010393929190610738565b60405180910390f35b610126600480360381019061012191906108b2565b610451565b005b6000600360008373ffffffffffffffffffffffffffffffffffffffff1673ffffffffffffffffffffffffffffffffffffffff16815260200190815260200160002060020160009054906101000a900460ff169050919050565b6060600360008373ffffffffffffffffffffffffffffffffffffffff1673ffffffffffffffffffffffffffffffffffffffff16815260200190815260200160002060020160009054906101000a900460ff16610212576040517f08c379a000000000000000000000000000000000000000000000000000000000815260040161020990610976565b60405180910390fd5b600360008373ffffffffffffffffffffffffffffffffffffffff1673ffffffffffffffffffffffffffffffffffffffff168152602001908152602001600020600101805461025f906109c5565b80601f016020809104026020016040519081016040528092919081815260200182805461028b906109c5565b80156102d85780601f106102ad576101008083540402835291602001916102d8565b820191906000526020600020905b8154815290600101906020018083116102bb57829003601f168201915b50505050509050919050565b600260009054906101000a900473ffffffffffffffffffffffffffffffffffffffff1681565b600360205280600052604060002060009150905080600001805461032d906109c5565b80601f0160208091040260200160405190810160405280929190818152602001828054610359906109c5565b80156103a65780601f1061037b576101008083540402835291602001916103a6565b820191906000526020600020905b81548152906001019060200180831161038957829003601f168201915b5050505050908060010180546103bb906109c5565b80601f01602080910402602001604051908101604052809291908181526020018280546103e7906109c5565b80156104345780601f1061040957610100808354040283529160200191610434565b820191906000526020600020905b81548152906001019060200180831161041757829003601f168201915b5050505050908060020160009054906101000a900460ff16905083565b60006040516104609190610a99565b604051809103902082805190602001201480610498575060016040516104869190610a99565b60405180910390208280519060200120145b6104d7576040517f08c379a00000000000000000000000000000000000000000000000000000000081526004016104ce90610afc565b60405180910390fd5b604051806060016040528082815260200183815260200160011515815250600360003373ffffffffffffffffffffffffffffffffffffffff1673ffffffffffffffffffffffffffffffffffffffff16815260200190815260200160002060008201518160000190816105499190610cd2565b50602082015181600101908161055f9190610cd2565b5060408201518160020160006101000a81548160ff0219169083151502179055509050505050565b6000604051905090565b600080fd5b600080fd5b600073ffffffffffffffffffffffffffffffffffffffff82169050919050565b60006105c68261059b565b9050919050565b6105d6816105bb565b81146105e157600080fd5b50565b6000813590506105f3816105cd565b92915050565b60006020828403121561060f5761060e610591565b5b600061061d848285016105e4565b91505092915050565b60008115159050919050565b61063b81610626565b82525050565b60006020820190506106566000830184610632565b92915050565b600081519050919050565b600082825260208201905092915050565b60005b8381101561069657808201518184015260208101905061067b565b60008484015250505050565b6000601f19601f8301169050919050565b60006106be8261065c565b6106c88185610667565b93506106d8818560208601610678565b6106e1816106a2565b840191505092915050565b6000602082019050818103600083015261070681846106b3565b905092915050565b610717816105bb565b82525050565b6000602082019050610732600083018461070e565b92915050565b6000606082019050818103600083015261075281866106b3565b9050818103602083015261076681856106b3565b90506107756040830184610632565b949350505050565b600080fd5b600080fd5b7f4e487b7100000000000000000000000000000000000000000000000000000000600052604160045260246000fd5b6107bf826106a2565b810181811067ffffffffffffffff821117156107de576107dd610787565b5b80604052505050565b60006107f1610587565b90506107fd82826107b6565b919050565b600067ffffffffffffffff82111561081d5761081c610787565b5b610826826106a2565b9050602081019050919050565b82818337600083830152505050565b600061085561085084610802565b6107e7565b90508281526020810184848401111561087157610870610782565b5b61087c848285610833565b509392505050565b600082601f8301126108995761089861077d565b5b81356108a9848260208601610842565b91505092915050565b600080604083850312156108c9576108c8610591565b5b600083013567ffffffffffffffff8111156108e7576108e6610596565b5b6108f385828601610884565b925050602083013567ffffffffffffffff81111561091457610913610596565b5b61092085828601610884565b9150509250929050565b7f55736572206973206e6f74207265676973746572656400000000000000000000600082015250565b6000610960601683610667565b915061096b8261092a565b602082019050919050565b6000602082019050818103600083015261098f81610953565b9050919050565b7f4e487b7100000000000000000000000000000000000000000000000000000000600052602260045260246000fd5b600060028204905060018216806109dd57607f821691505b6020821081036109f0576109ef610996565b5b50919050565b600081905092915050565b60008190508160005260206000209050919050565b60008154610a23816109c5565b610a2d81866109f6565b94506001821660008114610a485760018114610a5d57610a90565b60ff1983168652811515820286019350610a90565b610a6685610a01565b60005b83811015610a8857815481890152600182019150602081019050610a69565b838801955050505b50505092915050565b6000610aa58284610a16565b915081905092915050565b7f496e76616c696420757365722074797065000000000000000000000000000000600082015250565b6000610ae6601183610667565b9150610af182610ab0565b602082019050919050565b60006020820190508181036000830152610b1581610ad9565b9050919050565b60008190508160005260206000209050919050565b60006020601f8301049050919050565b600082821b905092915050565b600060088302610b7e7fffffffffffffffffffffffffffffffffffffffffffffffffffffffffffffffff82610b41565b610b888683610b41565b95508019841693508086168417925050509392505050565b6000819050919050565b6000819050919050565b6000610bcf610bca610bc584610ba0565b610baa565b610ba0565b9050919050565b6000819050919050565b610be983610bb4565b610bfd610bf582610bd6565b848454610b4e565b825550505050565b600090565b610c12610c05565b610c1d818484610be0565b505050565b5b81811015610c4157610c36600082610c0a565b600181019050610c23565b5050565b601f821115610c8657610c5781610b1c565b610c6084610b31565b81016020851015610c6f578190505b610c83610c7b85610b31565b830182610c22565b50505b505050565b600082821c905092915050565b6000610ca960001984600802610c8b565b1980831691505092915050565b6000610cc28383610c98565b9150826002028217905092915050565b610cdb8261065c565b67ffffffffffffffff811115610cf457610cf3610787565b5b610cfe82546109c5565b610d09828285610c45565b600060209050601f831160018114610d3c5760008415610d2a578287015190505b610d348582610cb6565b865550610d9c565b601f198416610d4a86610b1c565b60005b82811015610d7257848901518255600182019150602085019450602081019050610d4d565b86831015610d8f5784890151610d8b601f891682610c98565b8355505b6001600288020188555050505b50505050505056fea2646970667358221220e903b3ae3a40dd83381bcc6dd0f9839ee115f82b98d428f05478a34e8173940d64736f6c63430008120033",
			"opcodes": "PUSH1 0x80 PUSH1 0x40 MSTORE CALLVALUE DUP1 ISZERO PUSH3 0x11 JUMPI PUSH1 0x0 DUP1 REVERT JUMPDEST POP PUSH1 0x40 MLOAD PUSH3 0x13D8 CODESIZE SUB DUP1 PUSH3 0x13D8 DUP4 CODECOPY DUP2 DUP2 ADD PUSH1 0x40 MSTORE DUP2 ADD SWAP1 PUSH3 0x37 SWAP2 SWAP1 PUSH3 0x237 JUMP JUMPDEST DUP2 PUSH1 0x0 SWAP1 DUP2 PUSH3 0x48 SWAP2 SWAP1 PUSH3 0x507 JUMP JUMPDEST POP DUP1 PUSH1 0x1 SWAP1 DUP2 PUSH3 0x5A SWAP2 SWAP1 PUSH3 0x507 JUMP JUMPDEST POP CALLER PUSH1 0x2 PUSH1 0x0 PUSH2 0x100 EXP DUP2 SLOAD DUP2 PUSH20 0xFFFFFFFFFFFFFFFFFFFFFFFFFFFFFFFFFFFFFFFF MUL NOT AND SWAP1 DUP4 PUSH20 0xFFFFFFFFFFFFFFFFFFFFFFFFFFFFFFFFFFFFFFFF AND MUL OR SWAP1 SSTORE POP POP POP PUSH3 0x5EE JUMP JUMPDEST PUSH1 0x0 PUSH1 0x40 MLOAD SWAP1 POP SWAP1 JUMP JUMPDEST PUSH1 0x0 DUP1 REVERT JUMPDEST PUSH1 0x0 DUP1 REVERT JUMPDEST PUSH1 0x0 DUP1 REVERT JUMPDEST PUSH1 0x0 DUP1 REVERT JUMPDEST PUSH1 0x0 PUSH1 0x1F NOT PUSH1 0x1F DUP4 ADD AND SWAP1 POP SWAP2 SWAP1 POP JUMP JUMPDEST PUSH32 0x4E487B7100000000000000000000000000000000000000000000000000000000 PUSH1 0x0 MSTORE PUSH1 0x41 PUSH1 0x4 MSTORE PUSH1 0x24 PUSH1 0x0 REVERT JUMPDEST PUSH3 0x10D DUP3 PUSH3 0xC2 JUMP JUMPDEST DUP2 ADD DUP2 DUP2 LT PUSH8 0xFFFFFFFFFFFFFFFF DUP3 GT OR ISZERO PUSH3 0x12F JUMPI PUSH3 0x12E PUSH3 0xD3 JUMP JUMPDEST JUMPDEST DUP1 PUSH1 0x40 MSTORE POP POP POP JUMP JUMPDEST PUSH1 0x0 PUSH3 0x144 PUSH3 0xA4 JUMP JUMPDEST SWAP1 POP PUSH3 0x152 DUP3 DUP3 PUSH3 0x102 JUMP JUMPDEST SWAP2 SWAP1 POP JUMP JUMPDEST PUSH1 0x0 PUSH8 0xFFFFFFFFFFFFFFFF DUP3 GT ISZERO PUSH3 0x175 JUMPI PUSH3 0x174 PUSH3 0xD3 JUMP JUMPDEST JUMPDEST PUSH3 0x180 DUP3 PUSH3 0xC2 JUMP JUMPDEST SWAP1 POP PUSH1 0x20 DUP2 ADD SWAP1 POP SWAP2 SWAP1 POP JUMP JUMPDEST PUSH1 0x0 JUMPDEST DUP4 DUP2 LT ISZERO PUSH3 0x1AD JUMPI DUP1 DUP3 ADD MLOAD DUP2 DUP5 ADD MSTORE PUSH1 0x20 DUP2 ADD SWAP1 POP PUSH3 0x190 JUMP JUMPDEST PUSH1 0x0 DUP5 DUP5 ADD MSTORE POP POP POP POP JUMP JUMPDEST PUSH1 0x0 PUSH3 0x1D0 PUSH3 0x1CA DUP5 PUSH3 0x157 JUMP JUMPDEST PUSH3 0x138 JUMP JUMPDEST SWAP1 POP DUP3 DUP2 MSTORE PUSH1 0x20 DUP2 ADD DUP5 DUP5 DUP5 ADD GT ISZERO PUSH3 0x1EF JUMPI PUSH3 0x1EE PUSH3 0xBD JUMP JUMPDEST JUMPDEST PUSH3 0x1FC DUP5 DUP3 DUP6 PUSH3 0x18D JUMP JUMPDEST POP SWAP4 SWAP3 POP POP POP JUMP JUMPDEST PUSH1 0x0 DUP3 PUSH1 0x1F DUP4 ADD SLT PUSH3 0x21C JUMPI PUSH3 0x21B PUSH3 0xB8 JUMP JUMPDEST JUMPDEST DUP2 MLOAD PUSH3 0x22E DUP5 DUP3 PUSH1 0x20 DUP7 ADD PUSH3 0x1B9 JUMP JUMPDEST SWAP2 POP POP SWAP3 SWAP2 POP POP JUMP JUMPDEST PUSH1 0x0 DUP1 PUSH1 0x40 DUP4 DUP6 SUB SLT ISZERO PUSH3 0x251 JUMPI PUSH3 0x250 PUSH3 0xAE JUMP JUMPDEST JUMPDEST PUSH1 0x0 DUP4 ADD MLOAD PUSH8 0xFFFFFFFFFFFFFFFF DUP2 GT ISZERO PUSH3 0x272 JUMPI PUSH3 0x271 PUSH3 0xB3 JUMP JUMPDEST JUMPDEST PUSH3 0x280 DUP6 DUP3 DUP7 ADD PUSH3 0x204 JUMP JUMPDEST SWAP3 POP POP PUSH1 0x20 DUP4 ADD MLOAD PUSH8 0xFFFFFFFFFFFFFFFF DUP2 GT ISZERO PUSH3 0x2A4 JUMPI PUSH3 0x2A3 PUSH3 0xB3 JUMP JUMPDEST JUMPDEST PUSH3 0x2B2 DUP6 DUP3 DUP7 ADD PUSH3 0x204 JUMP JUMPDEST SWAP2 POP POP SWAP3 POP SWAP3 SWAP1 POP JUMP JUMPDEST PUSH1 0x0 DUP2 MLOAD SWAP1 POP SWAP2 SWAP1 POP JUMP JUMPDEST PUSH32 0x4E487B7100000000000000000000000000000000000000000000000000000000 PUSH1 0x0 MSTORE PUSH1 0x22 PUSH1 0x4 MSTORE PUSH1 0x24 PUSH1 0x0 REVERT JUMPDEST PUSH1 0x0 PUSH1 0x2 DUP3 DIV SWAP1 POP PUSH1 0x1 DUP3 AND DUP1 PUSH3 0x30F JUMPI PUSH1 0x7F DUP3 AND SWAP2 POP JUMPDEST PUSH1 0x20 DUP3 LT DUP2 SUB PUSH3 0x325 JUMPI PUSH3 0x324 PUSH3 0x2C7 JUMP JUMPDEST JUMPDEST POP SWAP2 SWAP1 POP JUMP JUMPDEST PUSH1 0x0 DUP2 SWAP1 POP DUP2 PUSH1 0x0 MSTORE PUSH1 0x20 PUSH1 0x0 KECCAK256 SWAP1 POP SWAP2 SWAP1 POP JUMP JUMPDEST PUSH1 0x0 PUSH1 0x20 PUSH1 0x1F DUP4 ADD DIV SWAP1 POP SWAP2 SWAP1 POP JUMP JUMPDEST PUSH1 0x0 DUP3 DUP3 SHL SWAP1 POP SWAP3 SWAP2 POP POP JUMP JUMPDEST PUSH1 0x0 PUSH1 0x8 DUP4 MUL PUSH3 0x38F PUSH32 0xFFFFFFFFFFFFFFFFFFFFFFFFFFFFFFFFFFFFFFFFFFFFFFFFFFFFFFFFFFFFFFFF DUP3 PUSH3 0x350 JUMP JUMPDEST PUSH3 0x39B DUP7 DUP4 PUSH3 0x350 JUMP JUMPDEST SWAP6 POP DUP1 NOT DUP5 AND SWAP4 POP DUP1 DUP7 AND DUP5 OR SWAP3 POP POP POP SWAP4 SWAP3 POP POP POP JUMP JUMPDEST PUSH1 0x0 DUP2 SWAP1 POP SWAP2 SWAP1 POP JUMP JUMPDEST PUSH1 0x0 DUP2 SWAP1 POP SWAP2 SWAP1 POP JUMP JUMPDEST PUSH1 0x0 PUSH3 0x3E8 PUSH3 0x3E2 PUSH3 0x3DC DUP5 PUSH3 0x3B3 JUMP JUMPDEST PUSH3 0x3BD JUMP JUMPDEST PUSH3 0x3B3 JUMP JUMPDEST SWAP1 POP SWAP2 SWAP1 POP JUMP JUMPDEST PUSH1 0x0 DUP2 SWAP1 POP SWAP2 SWAP1 POP JUMP JUMPDEST PUSH3 0x404 DUP4 PUSH3 0x3C7 JUMP JUMPDEST PUSH3 0x41C PUSH3 0x413 DUP3 PUSH3 0x3EF JUMP JUMPDEST DUP5 DUP5 SLOAD PUSH3 0x35D JUMP JUMPDEST DUP3 SSTORE POP POP POP POP JUMP JUMPDEST PUSH1 0x0 SWAP1 JUMP JUMPDEST PUSH3 0x433 PUSH3 0x424 JUMP JUMPDEST PUSH3 0x440 DUP2 DUP5 DUP5 PUSH3 0x3F9 JUMP JUMPDEST POP POP POP JUMP JUMPDEST JUMPDEST DUP2 DUP2 LT ISZERO PUSH3 0x468 JUMPI PUSH3 0x45C PUSH1 0x0 DUP3 PUSH3 0x429 JUMP JUMPDEST PUSH1 0x1 DUP2 ADD SWAP1 POP PUSH3 0x446 JUMP JUMPDEST POP POP JUMP JUMPDEST PUSH1 0x1F DUP3 GT ISZERO PUSH3 0x4B7 JUMPI PUSH3 0x481 DUP2 PUSH3 0x32B JUMP JUMPDEST PUSH3 0x48C DUP5 PUSH3 0x340 JUMP JUMPDEST DUP2 ADD PUSH1 0x20 DUP6 LT ISZERO PUSH3 0x49C JUMPI DUP2 SWAP1 POP JUMPDEST PUSH3 0x4B4 PUSH3 0x4AB DUP6 PUSH3 0x340 JUMP JUMPDEST DUP4 ADD DUP3 PUSH3 0x445 JUMP JUMPDEST POP POP JUMPDEST POP POP POP JUMP JUMPDEST PUSH1 0x0 DUP3 DUP3 SHR SWAP1 POP SWAP3 SWAP2 POP POP JUMP JUMPDEST PUSH1 0x0 PUSH3 0x4DC PUSH1 0x0 NOT DUP5 PUSH1 0x8 MUL PUSH3 0x4BC JUMP JUMPDEST NOT DUP1 DUP4 AND SWAP2 POP POP SWAP3 SWAP2 POP POP JUMP JUMPDEST PUSH1 0x0 PUSH3 0x4F7 DUP4 DUP4 PUSH3 0x4C9 JUMP JUMPDEST SWAP2 POP DUP3 PUSH1 0x2 MUL DUP3 OR SWAP1 POP SWAP3 SWAP2 POP POP JUMP JUMPDEST PUSH3 0x512 DUP3 PUSH3 0x2BC JUMP JUMPDEST PUSH8 0xFFFFFFFFFFFFFFFF DUP2 GT ISZERO PUSH3 0x52E JUMPI PUSH3 0x52D PUSH3 0xD3 JUMP JUMPDEST JUMPDEST PUSH3 0x53A DUP3 SLOAD PUSH3 0x2F6 JUMP JUMPDEST PUSH3 0x547 DUP3 DUP3 DUP6 PUSH3 0x46C JUMP JUMPDEST PUSH1 0x0 PUSH1 0x20 SWAP1 POP PUSH1 0x1F DUP4 GT PUSH1 0x1 DUP2 EQ PUSH3 0x57F JUMPI PUSH1 0x0 DUP5 ISZERO PUSH3 0x56A JUMPI DUP3 DUP8 ADD MLOAD SWAP1 POP JUMPDEST PUSH3 0x576 DUP6 DUP3 PUSH3 0x4E9 JUMP JUMPDEST DUP7 SSTORE POP PUSH3 0x5E6 JUMP JUMPDEST PUSH1 0x1F NOT DUP5 AND PUSH3 0x58F DUP7 PUSH3 0x32B JUMP JUMPDEST PUSH1 0x0 JUMPDEST DUP3 DUP2 LT ISZERO PUSH3 0x5B9 JUMPI DUP5 DUP10 ADD MLOAD DUP3 SSTORE PUSH1 0x1 DUP3 ADD SWAP2 POP PUSH1 0x20 DUP6 ADD SWAP5 POP PUSH1 0x20 DUP2 ADD SWAP1 POP PUSH3 0x592 JUMP JUMPDEST DUP7 DUP4 LT ISZERO PUSH3 0x5D9 JUMPI DUP5 DUP10 ADD MLOAD PUSH3 0x5D5 PUSH1 0x1F DUP10 AND DUP3 PUSH3 0x4C9 JUMP JUMPDEST DUP4 SSTORE POP JUMPDEST PUSH1 0x1 PUSH1 0x2 DUP9 MUL ADD DUP9 SSTORE POP POP POP JUMPDEST POP POP POP POP POP POP JUMP JUMPDEST PUSH2 0xDDA DUP1 PUSH3 0x5FE PUSH1 0x0 CODECOPY PUSH1 0x0 RETURN INVALID PUSH1 0x80 PUSH1 0x40 MSTORE CALLVALUE DUP1 ISZERO PUSH2 0x10 JUMPI PUSH1 0x0 DUP1 REVERT JUMPDEST POP PUSH1 0x4 CALLDATASIZE LT PUSH2 0x57 JUMPI PUSH1 0x0 CALLDATALOAD PUSH1 0xE0 SHR DUP1 PUSH4 0x163F7522 EQ PUSH2 0x5C JUMPI DUP1 PUSH4 0x8B3F863F EQ PUSH2 0x8C JUMPI DUP1 PUSH4 0x8DA5CB5B EQ PUSH2 0xBC JUMPI DUP1 PUSH4 0xA87430BA EQ PUSH2 0xDA JUMPI DUP1 PUSH4 0xE9F2D131 EQ PUSH2 0x10C JUMPI JUMPDEST PUSH1 0x0 DUP1 REVERT JUMPDEST PUSH2 0x76 PUSH1 0x4 DUP1 CALLDATASIZE SUB DUP2 ADD SWAP1 PUSH2 0x71 SWAP2 SWAP1 PUSH2 0x5F9 JUMP JUMPDEST PUSH2 0x128 JUMP JUMPDEST PUSH1 0x40 MLOAD PUSH2 0x83 SWAP2 SWAP1 PUSH2 0x641 JUMP JUMPDEST PUSH1 0x40 MLOAD DUP1 SWAP2 SUB SWAP1 RETURN JUMPDEST PUSH2 0xA6 PUSH1 0x4 DUP1 CALLDATASIZE SUB DUP2 ADD SWAP1 PUSH2 0xA1 SWAP2 SWAP1 PUSH2 0x5F9 JUMP JUMPDEST PUSH2 0x181 JUMP JUMPDEST PUSH1 0x40 MLOAD PUSH2 0xB3 SWAP2 SWAP1 PUSH2 0x6EC JUMP JUMPDEST PUSH1 0x40 MLOAD DUP1 SWAP2 SUB SWAP1 RETURN JUMPDEST PUSH2 0xC4 PUSH2 0x2E4 JUMP JUMPDEST PUSH1 0x40 MLOAD PUSH2 0xD1 SWAP2 SWAP1 PUSH2 0x71D JUMP JUMPDEST PUSH1 0x40 MLOAD DUP1 SWAP2 SUB SWAP1 RETURN JUMPDEST PUSH2 0xF4 PUSH1 0x4 DUP1 CALLDATASIZE SUB DUP2 ADD SWAP1 PUSH2 0xEF SWAP2 SWAP1 PUSH2 0x5F9 JUMP JUMPDEST PUSH2 0x30A JUMP JUMPDEST PUSH1 0x40 MLOAD PUSH2 0x103 SWAP4 SWAP3 SWAP2 SWAP1 PUSH2 0x738 JUMP JUMPDEST PUSH1 0x40 MLOAD DUP1 SWAP2 SUB SWAP1 RETURN JUMPDEST PUSH2 0x126 PUSH1 0x4 DUP1 CALLDATASIZE SUB DUP2 ADD SWAP1 PUSH2 0x121 SWAP2 SWAP1 PUSH2 0x8B2 JUMP JUMPDEST PUSH2 0x451 JUMP JUMPDEST STOP JUMPDEST PUSH1 0x0 PUSH1 0x3 PUSH1 0x0 DUP4 PUSH20 0xFFFFFFFFFFFFFFFFFFFFFFFFFFFFFFFFFFFFFFFF AND PUSH20 0xFFFFFFFFFFFFFFFFFFFFFFFFFFFFFFFFFFFFFFFF AND DUP2 MSTORE PUSH1 0x20 ADD SWAP1 DUP2 MSTORE PUSH1 0x20 ADD PUSH1 0x0 KECCAK256 PUSH1 0x2 ADD PUSH1 0x0 SWAP1 SLOAD SWAP1 PUSH2 0x100 EXP SWAP1 DIV PUSH1 0xFF AND SWAP1 POP SWAP2 SWAP1 POP JUMP JUMPDEST PUSH1 0x60 PUSH1 0x3 PUSH1 0x0 DUP4 PUSH20 0xFFFFFFFFFFFFFFFFFFFFFFFFFFFFFFFFFFFFFFFF AND PUSH20 0xFFFFFFFFFFFFFFFFFFFFFFFFFFFFFFFFFFFFFFFF AND DUP2 MSTORE PUSH1 0x20 ADD SWAP1 DUP2 MSTORE PUSH1 0x20 ADD PUSH1 0x0 KECCAK256 PUSH1 0x2 ADD PUSH1 0x0 SWAP1 SLOAD SWAP1 PUSH2 0x100 EXP SWAP1 DIV PUSH1 0xFF AND PUSH2 0x212 JUMPI PUSH1 0x40 MLOAD PUSH32 0x8C379A000000000000000000000000000000000000000000000000000000000 DUP2 MSTORE PUSH1 0x4 ADD PUSH2 0x209 SWAP1 PUSH2 0x976 JUMP JUMPDEST PUSH1 0x40 MLOAD DUP1 SWAP2 SUB SWAP1 REVERT JUMPDEST PUSH1 0x3 PUSH1 0x0 DUP4 PUSH20 0xFFFFFFFFFFFFFFFFFFFFFFFFFFFFFFFFFFFFFFFF AND PUSH20 0xFFFFFFFFFFFFFFFFFFFFFFFFFFFFFFFFFFFFFFFF AND DUP2 MSTORE PUSH1 0x20 ADD SWAP1 DUP2 MSTORE PUSH1 0x20 ADD PUSH1 0x0 KECCAK256 PUSH1 0x1 ADD DUP1 SLOAD PUSH2 0x25F SWAP1 PUSH2 0x9C5 JUMP JUMPDEST DUP1 PUSH1 0x1F ADD PUSH1 0x20 DUP1 SWAP2 DIV MUL PUSH1 0x20 ADD PUSH1 0x40 MLOAD SWAP1 DUP2 ADD PUSH1 0x40 MSTORE DUP1 SWAP3 SWAP2 SWAP1 DUP2 DUP2 MSTORE PUSH1 0x20 ADD DUP3 DUP1 SLOAD PUSH2 0x28B SWAP1 PUSH2 0x9C5 JUMP JUMPDEST DUP1 ISZERO PUSH2 0x2D8 JUMPI DUP1 PUSH1 0x1F LT PUSH2 0x2AD JUMPI PUSH2 0x100 DUP1 DUP4 SLOAD DIV MUL DUP4 MSTORE SWAP2 PUSH1 0x20 ADD SWAP2 PUSH2 0x2D8 JUMP JUMPDEST DUP3 ADD SWAP2 SWAP1 PUSH1 0x0 MSTORE PUSH1 0x20 PUSH1 0x0 KECCAK256 SWAP1 JUMPDEST DUP2 SLOAD DUP2 MSTORE SWAP1 PUSH1 0x1 ADD SWAP1 PUSH1 0x20 ADD DUP1 DUP4 GT PUSH2 0x2BB JUMPI DUP3 SWAP1 SUB PUSH1 0x1F AND DUP3 ADD SWAP2 JUMPDEST POP POP POP POP POP SWAP1 POP SWAP2 SWAP1 POP JUMP JUMPDEST PUSH1 0x2 PUSH1 0x0 SWAP1 SLOAD SWAP1 PUSH2 0x100 EXP SWAP1 DIV PUSH20 0xFFFFFFFFFFFFFFFFFFFFFFFFFFFFFFFFFFFFFFFF AND DUP2 JUMP JUMPDEST PUSH1 0x3 PUSH1 0x20 MSTORE DUP1 PUSH1 0x0 MSTORE PUSH1 0x40 PUSH1 0x0 KECCAK256 PUSH1 0x0 SWAP2 POP SWAP1 POP DUP1 PUSH1 0x0 ADD DUP1 SLOAD PUSH2 0x32D SWAP1 PUSH2 0x9C5 JUMP JUMPDEST DUP1 PUSH1 0x1F ADD PUSH1 0x20 DUP1 SWAP2 DIV MUL PUSH1 0x20 ADD PUSH1 0x40 MLOAD SWAP1 DUP2 ADD PUSH1 0x40 MSTORE DUP1 SWAP3 SWAP2 SWAP1 DUP2 DUP2 MSTORE PUSH1 0x20 ADD DUP3 DUP1 SLOAD PUSH2 0x359 SWAP1 PUSH2 0x9C5 JUMP JUMPDEST DUP1 ISZERO PUSH2 0x3A6 JUMPI DUP1 PUSH1 0x1F LT PUSH2 0x37B JUMPI PUSH2 0x100 DUP1 DUP4 SLOAD DIV MUL DUP4 MSTORE SWAP2 PUSH1 0x20 ADD SWAP2 PUSH2 0x3A6 JUMP JUMPDEST DUP3 ADD SWAP2 SWAP1 PUSH1 0x0 MSTORE PUSH1 0x20 PUSH1 0x0 KECCAK256 SWAP1 JUMPDEST DUP2 SLOAD DUP2 MSTORE SWAP1 PUSH1 0x1 ADD SWAP1 PUSH1 0x20 ADD DUP1 DUP4 GT PUSH2 0x389 JUMPI DUP3 SWAP1 SUB PUSH1 0x1F AND DUP3 ADD SWAP2 JUMPDEST POP POP POP POP POP SWAP1 DUP1 PUSH1 0x1 ADD DUP1 SLOAD PUSH2 0x3BB SWAP1 PUSH2 0x9C5 JUMP JUMPDEST DUP1 PUSH1 0x1F ADD PUSH1 0x20 DUP1 SWAP2 DIV MUL PUSH1 0x20 ADD PUSH1 0x40 MLOAD SWAP1 DUP2 ADD PUSH1 0x40 MSTORE DUP1 SWAP3 SWAP2 SWAP1 DUP2 DUP2 MSTORE PUSH1 0x20 ADD DUP3 DUP1 SLOAD PUSH2 0x3E7 SWAP1 PUSH2 0x9C5 JUMP JUMPDEST DUP1 ISZERO PUSH2 0x434 JUMPI DUP1 PUSH1 0x1F LT PUSH2 0x409 JUMPI PUSH2 0x100 DUP1 DUP4 SLOAD DIV MUL DUP4 MSTORE SWAP2 PUSH1 0x20 ADD SWAP2 PUSH2 0x434 JUMP JUMPDEST DUP3 ADD SWAP2 SWAP1 PUSH1 0x0 MSTORE PUSH1 0x20 PUSH1 0x0 KECCAK256 SWAP1 JUMPDEST DUP2 SLOAD DUP2 MSTORE SWAP1 PUSH1 0x1 ADD SWAP1 PUSH1 0x20 ADD DUP1 DUP4 GT PUSH2 0x417 JUMPI DUP3 SWAP1 SUB PUSH1 0x1F AND DUP3 ADD SWAP2 JUMPDEST POP POP POP POP POP SWAP1 DUP1 PUSH1 0x2 ADD PUSH1 0x0 SWAP1 SLOAD SWAP1 PUSH2 0x100 EXP SWAP1 DIV PUSH1 0xFF AND SWAP1 POP DUP4 JUMP JUMPDEST PUSH1 0x0 PUSH1 0x40 MLOAD PUSH2 0x460 SWAP2 SWAP1 PUSH2 0xA99 JUMP JUMPDEST PUSH1 0x40 MLOAD DUP1 SWAP2 SUB SWAP1 KECCAK256 DUP3 DUP1 MLOAD SWAP1 PUSH1 0x20 ADD KECCAK256 EQ DUP1 PUSH2 0x498 JUMPI POP PUSH1 0x1 PUSH1 0x40 MLOAD PUSH2 0x486 SWAP2 SWAP1 PUSH2 0xA99 JUMP JUMPDEST PUSH1 0x40 MLOAD DUP1 SWAP2 SUB SWAP1 KECCAK256 DUP3 DUP1 MLOAD SWAP1 PUSH1 0x20 ADD KECCAK256 EQ JUMPDEST PUSH2 0x4D7 JUMPI PUSH1 0x40 MLOAD PUSH32 0x8C379A000000000000000000000000000000000000000000000000000000000 DUP2 MSTORE PUSH1 0x4 ADD PUSH2 0x4CE SWAP1 PUSH2 0xAFC JUMP JUMPDEST PUSH1 0x40 MLOAD DUP1 SWAP2 SUB SWAP1 REVERT JUMPDEST PUSH1 0x40 MLOAD DUP1 PUSH1 0x60 ADD PUSH1 0x40 MSTORE DUP1 DUP3 DUP2 MSTORE PUSH1 0x20 ADD DUP4 DUP2 MSTORE PUSH1 0x20 ADD PUSH1 0x1 ISZERO ISZERO DUP2 MSTORE POP PUSH1 0x3 PUSH1 0x0 CALLER PUSH20 0xFFFFFFFFFFFFFFFFFFFFFFFFFFFFFFFFFFFFFFFF AND PUSH20 0xFFFFFFFFFFFFFFFFFFFFFFFFFFFFFFFFFFFFFFFF AND DUP2 MSTORE PUSH1 0x20 ADD SWAP1 DUP2 MSTORE PUSH1 0x20 ADD PUSH1 0x0 KECCAK256 PUSH1 0x0 DUP3 ADD MLOAD DUP2 PUSH1 0x0 ADD SWAP1 DUP2 PUSH2 0x549 SWAP2 SWAP1 PUSH2 0xCD2 JUMP JUMPDEST POP PUSH1 0x20 DUP3 ADD MLOAD DUP2 PUSH1 0x1 ADD SWAP1 DUP2 PUSH2 0x55F SWAP2 SWAP1 PUSH2 0xCD2 JUMP JUMPDEST POP PUSH1 0x40 DUP3 ADD MLOAD DUP2 PUSH1 0x2 ADD PUSH1 0x0 PUSH2 0x100 EXP DUP2 SLOAD DUP2 PUSH1 0xFF MUL NOT AND SWAP1 DUP4 ISZERO ISZERO MUL OR SWAP1 SSTORE POP SWAP1 POP POP POP POP JUMP JUMPDEST PUSH1 0x0 PUSH1 0x40 MLOAD SWAP1 POP SWAP1 JUMP JUMPDEST PUSH1 0x0 DUP1 REVERT JUMPDEST PUSH1 0x0 DUP1 REVERT JUMPDEST PUSH1 0x0 PUSH20 0xFFFFFFFFFFFFFFFFFFFFFFFFFFFFFFFFFFFFFFFF DUP3 AND SWAP1 POP SWAP2 SWAP1 POP JUMP JUMPDEST PUSH1 0x0 PUSH2 0x5C6 DUP3 PUSH2 0x59B JUMP JUMPDEST SWAP1 POP SWAP2 SWAP1 POP JUMP JUMPDEST PUSH2 0x5D6 DUP2 PUSH2 0x5BB JUMP JUMPDEST DUP2 EQ PUSH2 0x5E1 JUMPI PUSH1 0x0 DUP1 REVERT JUMPDEST POP JUMP JUMPDEST PUSH1 0x0 DUP2 CALLDATALOAD SWAP1 POP PUSH2 0x5F3 DUP2 PUSH2 0x5CD JUMP JUMPDEST SWAP3 SWAP2 POP POP JUMP JUMPDEST PUSH1 0x0 PUSH1 0x20 DUP3 DUP5 SUB SLT ISZERO PUSH2 0x60F JUMPI PUSH2 0x60E PUSH2 0x591 JUMP JUMPDEST JUMPDEST PUSH1 0x0 PUSH2 0x61D DUP5 DUP3 DUP6 ADD PUSH2 0x5E4 JUMP JUMPDEST SWAP2 POP POP SWAP3 SWAP2 POP POP JUMP JUMPDEST PUSH1 0x0 DUP2 ISZERO ISZERO SWAP1 POP SWAP2 SWAP1 POP JUMP JUMPDEST PUSH2 0x63B DUP2 PUSH2 0x626 JUMP JUMPDEST DUP3 MSTORE POP POP JUMP JUMPDEST PUSH1 0x0 PUSH1 0x20 DUP3 ADD SWAP1 POP PUSH2 0x656 PUSH1 0x0 DUP4 ADD DUP5 PUSH2 0x632 JUMP JUMPDEST SWAP3 SWAP2 POP POP JUMP JUMPDEST PUSH1 0x0 DUP2 MLOAD SWAP1 POP SWAP2 SWAP1 POP JUMP JUMPDEST PUSH1 0x0 DUP3 DUP3 MSTORE PUSH1 0x20 DUP3 ADD SWAP1 POP SWAP3 SWAP2 POP POP JUMP JUMPDEST PUSH1 0x0 JUMPDEST DUP4 DUP2 LT ISZERO PUSH2 0x696 JUMPI DUP1 DUP3 ADD MLOAD DUP2 DUP5 ADD MSTORE PUSH1 0x20 DUP2 ADD SWAP1 POP PUSH2 0x67B JUMP JUMPDEST PUSH1 0x0 DUP5 DUP5 ADD MSTORE POP POP POP POP JUMP JUMPDEST PUSH1 0x0 PUSH1 0x1F NOT PUSH1 0x1F DUP4 ADD AND SWAP1 POP SWAP2 SWAP1 POP JUMP JUMPDEST PUSH1 0x0 PUSH2 0x6BE DUP3 PUSH2 0x65C JUMP JUMPDEST PUSH2 0x6C8 DUP2 DUP6 PUSH2 0x667 JUMP JUMPDEST SWAP4 POP PUSH2 0x6D8 DUP2 DUP6 PUSH1 0x20 DUP7 ADD PUSH2 0x678 JUMP JUMPDEST PUSH2 0x6E1 DUP2 PUSH2 0x6A2 JUMP JUMPDEST DUP5 ADD SWAP2 POP POP SWAP3 SWAP2 POP POP JUMP JUMPDEST PUSH1 0x0 PUSH1 0x20 DUP3 ADD SWAP1 POP DUP2 DUP2 SUB PUSH1 0x0 DUP4 ADD MSTORE PUSH2 0x706 DUP2 DUP5 PUSH2 0x6B3 JUMP JUMPDEST SWAP1 POP SWAP3 SWAP2 POP POP JUMP JUMPDEST PUSH2 0x717 DUP2 PUSH2 0x5BB JUMP JUMPDEST DUP3 MSTORE POP POP JUMP JUMPDEST PUSH1 0x0 PUSH1 0x20 DUP3 ADD SWAP1 POP PUSH2 0x732 PUSH1 0x0 DUP4 ADD DUP5 PUSH2 0x70E JUMP JUMPDEST SWAP3 SWAP2 POP POP JUMP JUMPDEST PUSH1 0x0 PUSH1 0x60 DUP3 ADD SWAP1 POP DUP2 DUP2 SUB PUSH1 0x0 DUP4 ADD MSTORE PUSH2 0x752 DUP2 DUP7 PUSH2 0x6B3 JUMP JUMPDEST SWAP1 POP DUP2 DUP2 SUB PUSH1 0x20 DUP4 ADD MSTORE PUSH2 0x766 DUP2 DUP6 PUSH2 0x6B3 JUMP JUMPDEST SWAP1 POP PUSH2 0x775 PUSH1 0x40 DUP4 ADD DUP5 PUSH2 0x632 JUMP JUMPDEST SWAP5 SWAP4 POP POP POP POP JUMP JUMPDEST PUSH1 0x0 DUP1 REVERT JUMPDEST PUSH1 0x0 DUP1 REVERT JUMPDEST PUSH32 0x4E487B7100000000000000000000000000000000000000000000000000000000 PUSH1 0x0 MSTORE PUSH1 0x41 PUSH1 0x4 MSTORE PUSH1 0x24 PUSH1 0x0 REVERT JUMPDEST PUSH2 0x7BF DUP3 PUSH2 0x6A2 JUMP JUMPDEST DUP2 ADD DUP2 DUP2 LT PUSH8 0xFFFFFFFFFFFFFFFF DUP3 GT OR ISZERO PUSH2 0x7DE JUMPI PUSH2 0x7DD PUSH2 0x787 JUMP JUMPDEST JUMPDEST DUP1 PUSH1 0x40 MSTORE POP POP POP JUMP JUMPDEST PUSH1 0x0 PUSH2 0x7F1 PUSH2 0x587 JUMP JUMPDEST SWAP1 POP PUSH2 0x7FD DUP3 DUP3 PUSH2 0x7B6 JUMP JUMPDEST SWAP2 SWAP1 POP JUMP JUMPDEST PUSH1 0x0 PUSH8 0xFFFFFFFFFFFFFFFF DUP3 GT ISZERO PUSH2 0x81D JUMPI PUSH2 0x81C PUSH2 0x787 JUMP JUMPDEST JUMPDEST PUSH2 0x826 DUP3 PUSH2 0x6A2 JUMP JUMPDEST SWAP1 POP PUSH1 0x20 DUP2 ADD SWAP1 POP SWAP2 SWAP1 POP JUMP JUMPDEST DUP3 DUP2 DUP4 CALLDATACOPY PUSH1 0x0 DUP4 DUP4 ADD MSTORE POP POP POP JUMP JUMPDEST PUSH1 0x0 PUSH2 0x855 PUSH2 0x850 DUP5 PUSH2 0x802 JUMP JUMPDEST PUSH2 0x7E7 JUMP JUMPDEST SWAP1 POP DUP3 DUP2 MSTORE PUSH1 0x20 DUP2 ADD DUP5 DUP5 DUP5 ADD GT ISZERO PUSH2 0x871 JUMPI PUSH2 0x870 PUSH2 0x782 JUMP JUMPDEST JUMPDEST PUSH2 0x87C DUP5 DUP3 DUP6 PUSH2 0x833 JUMP JUMPDEST POP SWAP4 SWAP3 POP POP POP JUMP JUMPDEST PUSH1 0x0 DUP3 PUSH1 0x1F DUP4 ADD SLT PUSH2 0x899 JUMPI PUSH2 0x898 PUSH2 0x77D JUMP JUMPDEST JUMPDEST DUP2 CALLDATALOAD PUSH2 0x8A9 DUP5 DUP3 PUSH1 0x20 DUP7 ADD PUSH2 0x842 JUMP JUMPDEST SWAP2 POP POP SWAP3 SWAP2 POP POP JUMP JUMPDEST PUSH1 0x0 DUP1 PUSH1 0x40 DUP4 DUP6 SUB SLT ISZERO PUSH2 0x8C9 JUMPI PUSH2 0x8C8 PUSH2 0x591 JUMP JUMPDEST JUMPDEST PUSH1 0x0 DUP4 ADD CALLDATALOAD PUSH8 0xFFFFFFFFFFFFFFFF DUP2 GT ISZERO PUSH2 0x8E7 JUMPI PUSH2 0x8E6 PUSH2 0x596 JUMP JUMPDEST JUMPDEST PUSH2 0x8F3 DUP6 DUP3 DUP7 ADD PUSH2 0x884 JUMP JUMPDEST SWAP3 POP POP PUSH1 0x20 DUP4 ADD CALLDATALOAD PUSH8 0xFFFFFFFFFFFFFFFF DUP2 GT ISZERO PUSH2 0x914 JUMPI PUSH2 0x913 PUSH2 0x596 JUMP JUMPDEST JUMPDEST PUSH2 0x920 DUP6 DUP3 DUP7 ADD PUSH2 0x884 JUMP JUMPDEST SWAP2 POP POP SWAP3 POP SWAP3 SWAP1 POP JUMP JUMPDEST PUSH32 0x55736572206973206E6F74207265676973746572656400000000000000000000 PUSH1 0x0 DUP3 ADD MSTORE POP JUMP JUMPDEST PUSH1 0x0 PUSH2 0x960 PUSH1 0x16 DUP4 PUSH2 0x667 JUMP JUMPDEST SWAP2 POP PUSH2 0x96B DUP3 PUSH2 0x92A JUMP JUMPDEST PUSH1 0x20 DUP3 ADD SWAP1 POP SWAP2 SWAP1 POP JUMP JUMPDEST PUSH1 0x0 PUSH1 0x20 DUP3 ADD SWAP1 POP DUP2 DUP2 SUB PUSH1 0x0 DUP4 ADD MSTORE PUSH2 0x98F DUP2 PUSH2 0x953 JUMP JUMPDEST SWAP1 POP SWAP2 SWAP1 POP JUMP JUMPDEST PUSH32 0x4E487B7100000000000000000000000000000000000000000000000000000000 PUSH1 0x0 MSTORE PUSH1 0x22 PUSH1 0x4 MSTORE PUSH1 0x24 PUSH1 0x0 REVERT JUMPDEST PUSH1 0x0 PUSH1 0x2 DUP3 DIV SWAP1 POP PUSH1 0x1 DUP3 AND DUP1 PUSH2 0x9DD JUMPI PUSH1 0x7F DUP3 AND SWAP2 POP JUMPDEST PUSH1 0x20 DUP3 LT DUP2 SUB PUSH2 0x9F0 JUMPI PUSH2 0x9EF PUSH2 0x996 JUMP JUMPDEST JUMPDEST POP SWAP2 SWAP1 POP JUMP JUMPDEST PUSH1 0x0 DUP2 SWAP1 POP SWAP3 SWAP2 POP POP JUMP JUMPDEST PUSH1 0x0 DUP2 SWAP1 POP DUP2 PUSH1 0x0 MSTORE PUSH1 0x20 PUSH1 0x0 KECCAK256 SWAP1 POP SWAP2 SWAP1 POP JUMP JUMPDEST PUSH1 0x0 DUP2 SLOAD PUSH2 0xA23 DUP2 PUSH2 0x9C5 JUMP JUMPDEST PUSH2 0xA2D DUP2 DUP7 PUSH2 0x9F6 JUMP JUMPDEST SWAP5 POP PUSH1 0x1 DUP3 AND PUSH1 0x0 DUP2 EQ PUSH2 0xA48 JUMPI PUSH1 0x1 DUP2 EQ PUSH2 0xA5D JUMPI PUSH2 0xA90 JUMP JUMPDEST PUSH1 0xFF NOT DUP4 AND DUP7 MSTORE DUP2 ISZERO ISZERO DUP3 MUL DUP7 ADD SWAP4 POP PUSH2 0xA90 JUMP JUMPDEST PUSH2 0xA66 DUP6 PUSH2 0xA01 JUMP JUMPDEST PUSH1 0x0 JUMPDEST DUP4 DUP2 LT ISZERO PUSH2 0xA88 JUMPI DUP2 SLOAD DUP2 DUP10 ADD MSTORE PUSH1 0x1 DUP3 ADD SWAP2 POP PUSH1 0x20 DUP2 ADD SWAP1 POP PUSH2 0xA69 JUMP JUMPDEST DUP4 DUP9 ADD SWAP6 POP POP POP JUMPDEST POP POP POP SWAP3 SWAP2 POP POP JUMP JUMPDEST PUSH1 0x0 PUSH2 0xAA5 DUP3 DUP5 PUSH2 0xA16 JUMP JUMPDEST SWAP2 POP DUP2 SWAP1 POP SWAP3 SWAP2 POP POP JUMP JUMPDEST PUSH32 0x496E76616C696420757365722074797065000000000000000000000000000000 PUSH1 0x0 DUP3 ADD MSTORE POP JUMP JUMPDEST PUSH1 0x0 PUSH2 0xAE6 PUSH1 0x11 DUP4 PUSH2 0x667 JUMP JUMPDEST SWAP2 POP PUSH2 0xAF1 DUP3 PUSH2 0xAB0 JUMP JUMPDEST PUSH1 0x20 DUP3 ADD SWAP1 POP SWAP2 SWAP1 POP JUMP JUMPDEST PUSH1 0x0 PUSH1 0x20 DUP3 ADD SWAP1 POP DUP2 DUP2 SUB PUSH1 0x0 DUP4 ADD MSTORE PUSH2 0xB15 DUP2 PUSH2 0xAD9 JUMP JUMPDEST SWAP1 POP SWAP2 SWAP1 POP JUMP JUMPDEST PUSH1 0x0 DUP2 SWAP1 POP DUP2 PUSH1 0x0 MSTORE PUSH1 0x20 PUSH1 0x0 KECCAK256 SWAP1 POP SWAP2 SWAP1 POP JUMP JUMPDEST PUSH1 0x0 PUSH1 0x20 PUSH1 0x1F DUP4 ADD DIV SWAP1 POP SWAP2 SWAP1 POP JUMP JUMPDEST PUSH1 0x0 DUP3 DUP3 SHL SWAP1 POP SWAP3 SWAP2 POP POP JUMP JUMPDEST PUSH1 0x0 PUSH1 0x8 DUP4 MUL PUSH2 0xB7E PUSH32 0xFFFFFFFFFFFFFFFFFFFFFFFFFFFFFFFFFFFFFFFFFFFFFFFFFFFFFFFFFFFFFFFF DUP3 PUSH2 0xB41 JUMP JUMPDEST PUSH2 0xB88 DUP7 DUP4 PUSH2 0xB41 JUMP JUMPDEST SWAP6 POP DUP1 NOT DUP5 AND SWAP4 POP DUP1 DUP7 AND DUP5 OR SWAP3 POP POP POP SWAP4 SWAP3 POP POP POP JUMP JUMPDEST PUSH1 0x0 DUP2 SWAP1 POP SWAP2 SWAP1 POP JUMP JUMPDEST PUSH1 0x0 DUP2 SWAP1 POP SWAP2 SWAP1 POP JUMP JUMPDEST PUSH1 0x0 PUSH2 0xBCF PUSH2 0xBCA PUSH2 0xBC5 DUP5 PUSH2 0xBA0 JUMP JUMPDEST PUSH2 0xBAA JUMP JUMPDEST PUSH2 0xBA0 JUMP JUMPDEST SWAP1 POP SWAP2 SWAP1 POP JUMP JUMPDEST PUSH1 0x0 DUP2 SWAP1 POP SWAP2 SWAP1 POP JUMP JUMPDEST PUSH2 0xBE9 DUP4 PUSH2 0xBB4 JUMP JUMPDEST PUSH2 0xBFD PUSH2 0xBF5 DUP3 PUSH2 0xBD6 JUMP JUMPDEST DUP5 DUP5 SLOAD PUSH2 0xB4E JUMP JUMPDEST DUP3 SSTORE POP POP POP POP JUMP JUMPDEST PUSH1 0x0 SWAP1 JUMP JUMPDEST PUSH2 0xC12 PUSH2 0xC05 JUMP JUMPDEST PUSH2 0xC1D DUP2 DUP5 DUP5 PUSH2 0xBE0 JUMP JUMPDEST POP POP POP JUMP JUMPDEST JUMPDEST DUP2 DUP2 LT ISZERO PUSH2 0xC41 JUMPI PUSH2 0xC36 PUSH1 0x0 DUP3 PUSH2 0xC0A JUMP JUMPDEST PUSH1 0x1 DUP2 ADD SWAP1 POP PUSH2 0xC23 JUMP JUMPDEST POP POP JUMP JUMPDEST PUSH1 0x1F DUP3 GT ISZERO PUSH2 0xC86 JUMPI PUSH2 0xC57 DUP2 PUSH2 0xB1C JUMP JUMPDEST PUSH2 0xC60 DUP5 PUSH2 0xB31 JUMP JUMPDEST DUP2 ADD PUSH1 0x20 DUP6 LT ISZERO PUSH2 0xC6F JUMPI DUP2 SWAP1 POP JUMPDEST PUSH2 0xC83 PUSH2 0xC7B DUP6 PUSH2 0xB31 JUMP JUMPDEST DUP4 ADD DUP3 PUSH2 0xC22 JUMP JUMPDEST POP POP JUMPDEST POP POP POP JUMP JUMPDEST PUSH1 0x0 DUP3 DUP3 SHR SWAP1 POP SWAP3 SWAP2 POP POP JUMP JUMPDEST PUSH1 0x0 PUSH2 0xCA9 PUSH1 0x0 NOT DUP5 PUSH1 0x8 MUL PUSH2 0xC8B JUMP JUMPDEST NOT DUP1 DUP4 AND SWAP2 POP POP SWAP3 SWAP2 POP POP JUMP JUMPDEST PUSH1 0x0 PUSH2 0xCC2 DUP4 DUP4 PUSH2 0xC98 JUMP JUMPDEST SWAP2 POP DUP3 PUSH1 0x2 MUL DUP3 OR SWAP1 POP SWAP3 SWAP2 POP POP JUMP JUMPDEST PUSH2 0xCDB DUP3 PUSH2 0x65C JUMP JUMPDEST PUSH8 0xFFFFFFFFFFFFFFFF DUP2 GT ISZERO PUSH2 0xCF4 JUMPI PUSH2 0xCF3 PUSH2 0x787 JUMP JUMPDEST JUMPDEST PUSH2 0xCFE DUP3 SLOAD PUSH2 0x9C5 JUMP JUMPDEST PUSH2 0xD09 DUP3 DUP3 DUP6 PUSH2 0xC45 JUMP JUMPDEST PUSH1 0x0 PUSH1 0x20 SWAP1 POP PUSH1 0x1F DUP4 GT PUSH1 0x1 DUP2 EQ PUSH2 0xD3C JUMPI PUSH1 0x0 DUP5 ISZERO PUSH2 0xD2A JUMPI DUP3 DUP8 ADD MLOAD SWAP1 POP JUMPDEST PUSH2 0xD34 DUP6 DUP3 PUSH2 0xCB6 JUMP JUMPDEST DUP7 SSTORE POP PUSH2 0xD9C JUMP JUMPDEST PUSH1 0x1F NOT DUP5 AND PUSH2 0xD4A DUP7 PUSH2 0xB1C JUMP JUMPDEST PUSH1 0x0 JUMPDEST DUP3 DUP2 LT ISZERO PUSH2 0xD72 JUMPI DUP5 DUP10 ADD MLOAD DUP3 SSTORE PUSH1 0x1 DUP3 ADD SWAP2 POP PUSH1 0x20 DUP6 ADD SWAP5 POP PUSH1 0x20 DUP2 ADD SWAP1 POP PUSH2 0xD4D JUMP JUMPDEST DUP7 DUP4 LT ISZERO PUSH2 0xD8F JUMPI DUP5 DUP10 ADD MLOAD PUSH2 0xD8B PUSH1 0x1F DUP10 AND DUP3 PUSH2 0xC98 JUMP JUMPDEST DUP4 SSTORE POP JUMPDEST PUSH1 0x1 PUSH1 0x2 DUP9 MUL ADD DUP9 SSTORE POP POP POP JUMPDEST POP POP POP POP POP POP JUMP INVALID LOG2 PUSH5 0x6970667358 0x22 SLT KECCAK256 0xE9 SUB 0xB3 0xAE GASPRICE BLOCKHASH 0xDD DUP4 CODESIZE SHL 0xCC PUSH14 0xD0F9839EE115F82B98D428F05478 LOG3 0x4E DUP2 PUSH20 0x940D64736F6C6343000812003300000000000000 "
		},
		"gasEstimates": {
			"creation": {
				"codeDepositCost": "709200",
				"executionCost": "infinite",
				"totalCost": "infinite"
			},
			"external": {
				"getUserType(address)": "infinite",
				"isUserRegistered(address)": "2867",
				"owner()": "2536",
				"user_register(string,string)": "infinite",
				"users(address)": "infinite"
			}
		},
		"methodIdentifiers": {
			"getUserType(address)": "8b3f863f",
			"isUserRegistered(address)": "163f7522",
			"owner()": "8da5cb5b",
			"user_register(string,string)": "e9f2d131",
			"users(address)": "a87430ba"
		}
	},
	"abi": [
		{
			"inputs": [
				{
					"internalType": "string",
					"name": "_type1",
					"type": "string"
				},
				{
					"internalType": "string",
					"name": "_type2",
					"type": "string"
				}
			],
			"stateMutability": "nonpayable",
			"type": "constructor"
		},
		{
			"inputs": [
				{
					"internalType": "address",
					"name": "_address",
					"type": "address"
				}
			],
			"name": "getUserType",
			"outputs": [
				{
					"internalType": "string",
					"name": "",
					"type": "string"
				}
			],
			"stateMutability": "view",
			"type": "function"
		},
		{
			"inputs": [
				{
					"internalType": "address",
					"name": "_address",
					"type": "address"
				}
			],
			"name": "isUserRegistered",
			"outputs": [
				{
					"internalType": "bool",
					"name": "",
					"type": "bool"
				}
			],
			"stateMutability": "view",
			"type": "function"
		},
		{
			"inputs": [],
			"name": "owner",
			"outputs": [
				{
					"internalType": "address",
					"name": "",
					"type": "address"
				}
			],
			"stateMutability": "view",
			"type": "function"
		},
		{
			"inputs": [
				{
					"internalType": "string",
					"name": "usertype",
					"type": "string"
				},
				{
					"internalType": "string",
					"name": "username",
					"type": "string"
				}
			],
			"name": "user_register",
			"outputs": [],
			"stateMutability": "nonpayable",
			"type": "function"
		},
		{
			"inputs": [
				{
					"internalType": "address",
					"name": "",
					"type": "address"
				}
			],
			"name": "users",
			"outputs": [
				{
					"internalType": "string",
					"name": "username",
					"type": "string"
				},
				{
					"internalType": "string",
					"name": "usertype",
					"type": "string"
				},
				{
					"internalType": "bool",
					"name": "registered",
					"type": "bool"
				}
			],
			"stateMutability": "view",
			"type": "function"
		}
	]
}